:100795002460603213160C185E081C5A42524A082F
:1007A5000501000206070309040503070602000107
:0C07B50000000000000000000000000038
:1007E5000721300408013011140129C8042A00002A
:0607F5000000C100C1017B
:1007FC00AD071FED600BE4FEEEC3940D50F20E80BE
:01080C00F7F4
:01080D0022C8
:03000B0002074C9D
:10074C00C0E0C0D0C28CC28D0528E528D3941340DC
:10075C001C7528000529E529D394EF40077529005D
:10076C00D2018009E529C394F05002D200E528B4E7
:10077C000A04D2B38006E5287002C2B3758AB0753C
:09078C008C3CD28CD0D0D0E032BC
:1006FF00D280C297D297C29712080E7D1C7F0E121E
:10070F00045E758901D2A9758AB0758C3CD28CD2E2
:10071F00AF300005120545C2003001081207C112A3
:10072F000545C201D2802080E8C2AF120684E52CB5
:0D073F00B44606E4F52C12000ED2AF80D4B3
:10000E0078087C007D007BFF7A0779B57E007F063D
:10001E0012040D780E7C007D007BFF7A0779BB7E83
:10002E00007F0612040DE4F514F516F51775180089
:10003E00751908C2B3C297D297C297F515E4F59019
:10004E0075907EF5900515E515B408F12080031224
:10005E000684E52C64097078F52CE5166003020120
:10006E0002F515E515C394035031E51525E0240876
:10007E00F8E6C454F0FFE51525E02409F8E64FFF35
:10008E00E51590079593FEEFC39E400B751700750F
:10009E00180075190880B5051580C87D1C7F0E12D5
:1000AE00045EE50CC454F0450DFDE4FF12045EE55C
:1000BE000AC454F0450BFD7F0112045EE508C454DA
:1000CE00F04509FD7F0212045EAD147F0302045E4B
:1000DE00E52CB4150E0514E514D394074048751499
:1000EE00018043E52CB4070CE514B4010375140824
:1000FE0015148032E4F515E515C3940A4003020089
:10010E005AE51590079A93B52C18AB17AA18A9198A
:10011E00E51512044C74012519F519E43518F51876
:10012E008004051580D17B007A00790EE5167004E7
:10013E007A007908C297D297C297E4F51512043364
:10014E009007A493D395154006C291D291C2917493
:10015E000129F9E43AFA1204339007A493D39515C2
:10016E004006C292D292C292740129F9E43AFA126E
:10017E0004339007A493D395154006C293D293C22D
:10018E0093740129F9E43AFA1204339007A493D335
:10019E0095154006C294D294C294740129F9E43A9A
:1001AE00FA1204339007A493D395154006C295D244
:1001BE0095C295740129F9E43AFA1204339007A412
:1001CE0093D395154006C296D296C296E514900723
:1001DE00AD93D395154006C2B2D2B2C2B27B007AAD
:1001EE0000790EE51670047A0079080515E5156498
:0C01FE000A600302014BE4F52C02005AD9
:10068400E4F51BF52C7F0F1207FC20806D208007FA
:100694007F011207FC80F6E4FCE4F51A3080077F42
:1006A400011207FC80F62080077F011207FC80F608
:1006B4003080107F011207FC051BE51BC3941E400C
:1006C400EF8034742A2CF8C000E6C313D000F6E59A
:1006D4001BC394084008742A2CF8E64480F6E4F519
:1006E4001B051AE51AC3940840B20CEC640470A903
:0A06F400E52DF4652C6003E4F52CFD
:0106FE0022D9
:1007C100C297D297C297E4FC7FFA1207FC7FFA1214
:1007D10007FC7FFA1207FCE4F59075907EF5900C0A
:0307E100BC64E510
:0107E40022F2
:10054500E4F508AF0812020A74212508F8A6070584
:1005550008E508C3940740EBC297D297C297E4F524
:1005650008E523C4540F9007A493D395084006C209
:1005750091D291C291E523540F9007A493D3950886
:100585004006C292D292C292E522C4540F9007A4AB
:1005950093D395084006C293D293C293E522540F94
:1005A5009007A493D395084006C294D294C294E5CB
:1005B50021C4540F9007A493D395084006C295D241
:1005C50095C295E521540F9007A493D3950840064D
:1005D500C296D296C296E5249007AD93D39508406E
:1005E50006C2B2D2B2C2B20508E508640A600302C7
:0205F500056699
:0105F70022E1
:0E080E00D2A0D2A1C2A2120003D2A202000305
:04045E008F1A8D1B49
:10046200D2A0D2A1120003C2A1120003C2A0E4F5DD
:100472001C74807E00A81C088006CEA2E713CE134F
:10048200D8F854D06004D2A18002C2A1120003D2D3
:10049200A0120003C2A0120003051CE51CC39408AD
:1004A20040CFC2A1120003D2A0120003C2A01200C8
:1004B20003E4F51C74807E00A81C088006CEA2E727
:1004C20013CE13D8F8FFEF551A6004D2A18002C2EE
:1004D200A1120003D2A0120003C2A0120003051C45
:1004E200E51CC3940840CDC2A1120003D2A01200A1
:1004F20003C2A0120003E4F51C74807E00A81C084D
:100502008006CEA2E713CE13D8F8FFEF551B600486
:10051200D2A18002C2A1120003D2A0120003C2A083
:10052200120003051CE51CC3940840CDC2A11200B1
:1005320003D2A0120003C2A0120003D2A012000331
:02054200D2A144
:010544002294
:02020A008F095A
:10020C00E4F50BD2A0D2A1120003C2A1120003C2CA
:10021C00A0E4F50A74807E00A80A088006CEA2E746
:10022C0013CE13D8F854D06004D2A18002C2A1120C
:10023C000003D2A0120003C2A0120003050AE50AB3
:10024C00C3940840CFC2A1120003D2A0120003C273
:10025C00A0120003E4F50A74807E00A80A08800648
:10026C00CEA2E713CE13D8F8FFEF55096004D2A144
:10027C008002C2A1120003D2A0120003C2A012007D
:10028C0003050AE50AC3940840CDC2A1120003D2AB
:10029C00A0120003C2A0120003D2A1120003D2A02C
:1002AC00120003C2A1120003C2A0120003E4F50A5B
:1002BC0074807E00A80A088006CEA2E713CE13D85D
:1002CC00F854D16004D2A18002C2A1120003D2A0C2
:1002DC00120003C2A0120003050AE50AC3940840E9
:1002EC00CFC2A1120003D2A0120003C2A0120003BD
:1002FC00D2A1E4F50AE50B25E0F50BD2A012000320
:10030C0030A102050BC2A0120003050AE50AC39432
:10031C000840E2D2A1120003D2A0120003C2A01224
:10032C000003C2A1120003D2A0120003D2A1AF0B92
:01033C00229E
:06000300E4FF0FEF70FCAA
:0100090022D4
:030000000205F8FE
:0C05F800787FE4F6D8FD75812D02063FE7
:10033D00E709F608DFFA8046E709F208DFFA803EA2
:10034D0088828C83E709F0A3DFFA8032E309F6088F
:10035D00DFFA8078E309F208DFFA807088828C83F7
:10036D00E309F0A3DFFA806489828A83E0A3F608AB
:10037D00DFFA805889828A83E0A3F208DFFA804C85
:10038D0080D280FA80C680D4806980F2803380105C
:10039D0080A680EA809A80A880DA80E280CA8033C5
:1003AD0089828A83ECFAE493A3C8C582C8CCC5833D
:1003BD00CCF0A3C8C582C8CCC583CCDFE9DEE7800D
:1003CD000D89828A83E493A3F608DFF9ECFAA9F08C
:1003DD00EDFB2289828A83ECFAE0A3C8C582C8CCE2
:1003ED00C583CCF0A3C8C582C8CCC583CCDFEADEFB
:1003FD00E880DB89828A83E493A3F208DFF980CC5D
:10040D0088F0EF60010E4E60C388F0ED2402B40455
:10041D000050B9F582EB2402B4040050AF232345FC
:06042D00822390038D7391
:10043300BB010689828A83E0225002E722BBFE02C7
:09044300E32289828A83E49322FA
:10044C00BB010689828A83F0225002F722BBFE018F
:02045C00F32289
:100604000206FFE493A3F8E493A34003F68001F207
:1006140008DFF48029E493A3F85407240CC8C333F7
:10062400C4540F4420C8834004F456800146F6DFC6
:10063400E4800B01020408102040809007E5E47E6A
:10064400019360BCA3FF543F30E509541FFEE493BB
:10065400A360010ECF54C025E060A840B8E493A382
:10066400FAE493A3F8E493A3C8C582C8CAC583CAAD
:10067400F0A3C8C582C8CAC583CADFE9DEE780BE65
:0107FB0000FD
:00000001FF
