:1005F8002460603213160C185E081C5A42524A08CE
:1006080005010002060703090405030706020001A5
:0C061800000000000000000000000000D6
:100681000721303601200601140129C8042A00007F
:060691000000C100C101E0
:1006AB00AD071FED600BE4FEEEC3940D50F20E8010
:0106BB00F747
:0106BC00221B
:03000B0002057279
:10057200C0E0C0D0C28CC28D0528E528D3941340B8
:100582001C7528000529E529D394EF400775290039
:10059200D2018009E529C394F05002D200E528B4C3
:1005A2000A04D2B38006E5287002C2B3758AB07518
:0905B2008C3CD28CD0D0D0E03298
:10051500D280C2A2C2A0C297D297C2971206BD7F4F
:10052500C1120648EF64AA60097B007A007921129E
:1005350005BB758901D2A9758AB0758C3CD28CD260
:10054500AF300005120357C200300108120624120D
:100555000357C201D2802080E8C2AF12049AE52C6D
:0D056500B44606E4F52C12000ED2AF80D48F
:10000E0078087C007D007BFF7A0679187E007F06DB
:10001E001202D9780E7C007D007BFF7A06791E7E57
:10002E00007F061202D9E4F514F516F517751800BF
:10003E00751908C2B3C297D297C297F515E4F59019
:10004E0075907EF5900515E515B408F12080031224
:10005E00049AE52C6409707AF52CE51660022104E9
:10006E00F515E515C394035031E51525E02408F880
:10007E00E6C454F0FFE51525E02409F8E64FFFE548
:10008E00159005F893FEEFC39E400B75170075187B
:10009E000075190880B6051580C81206987D507F28
:1000AE009012069CE50CC454F0450DFD7F8012069F
:1000BE009CE50AC454F0450BFD7F8212069CE508B0
:1000CE00C454F04509FD7F8412069CAD147F8A024C
:1000DE00069CE52CB4150E0514E514D39407404781
:1000EE007514018042E52CB4070CE514B4010375B8
:1000FE00140815148031E4F515E515C3940A400271
:10010E00015AE5159005FD93B52C18AB17AA18A941
:10011E0019E51512034574012519F519E43518F57D
:10012E00188004051580D27B007A00790EE51670D2
:10013E00047A007908C297D297C297E4F515120295
:10014E00FF90060793D395154006C291D291C291A6
:10015E00740129F9E43AFA1202FF90060793D39537
:10016E00154006C292D292C292740129F9E43AFA6B
:10017E001202FF90060793D395154006C293D293B1
:10018E00C293740129F9E43AFA1202FF900607931A
:10019E00D395154006C294D294C294740129F9E401
:1001AE003AFA1202FF90060793D395154006C295B0
:1001BE00D295C295740129F9E43AFA1202FF90061B
:1001CE000793D395154006C296D296C296E5149023
:1001DE00061093D395154006C2B2D2B2C2B27B00BE
:1001EE007A00790EE51670047A0079080515E51582
:0B01FE00640A6002214CE4F52C015A59
:10049A00E4F51BF52C7F0F1206AB20806D20800738
:1004AA007F011206AB80F6E4FCE4F51A3080077F80
:1004BA00011206AB80F62080077F011206AB80F698
:1004CA003080107F011206AB051BE51BC3941E404A
:1004DA00EF8034742A2CF8C000E6C313D000F6E586
:1004EA001BC394084008742A2CF8E64480F6E4F505
:1004FA001B051AE51AC3940840B20CEC640470A9EF
:0A050A00E52DF4652C6003E4F52CE8
:0105140022C4
:10062400C297D297C297E4FC7FFA1206AB7FFA1204
:1006340006AB7FFA1206ABE4F59075907EF5900C4C
:03064400BC64E5AE
:010647002290
:10035700E4F508E50825E02481FF12064874212505
:1003670008F8A6070508E508C3940740E6C297D230
:1003770097C297E4F508E523C4540F90060793D373
:1003870095084006C291D291C291E523540F900679
:100397000793D395084006C292D292C292E522C42F
:1003A700540F90060793D395084006C293D293C281
:1003B70093E522540F90060793D395084006C294FD
:1003C700D294C294E521C4540F90060793D395089D
:1003D7004006C295D295C295E521540F9006079322
:1003E700D395084006C296D296C296E52690061087
:1003F70093D395084006C2B2D2B2C2B20508E50847
:06040700640A6002617D41
:01040D0022CC
:0A06BD001206987D507F9002069C03
:0605BB008B088A09890A81
:1005C1001206987D507F9012069CE4F50BE50B25F1
:1005D100E02480FFAB08AA09A90A850B8275830074
:1005E100120318FD12069C050BE50BC3940840DDB0
:0705F1007DAA7FC002069CF9
:04069800E4FD7F8E70
:0F069C008D1AD2A2120668AF1A120668C2A222E5
:10066800E4FEC2A1EF30E002D2A1D2A000C2A000F5
:08067800EFC313FF0EBE08EAF8
:010680002257
:10064800D2A2120668E4FFEDC313FD30A1034305EF
:0F06580080D2A000C2A0000FBF08ECC2A2AF0565
:010667002270
:0300000002040EE9
:0C040E00787FE4F6D8FD75812D020455BE
:10020900E709F608DFFA8046E709F208DFFA803ED7
:1002190088828C83E709F0A3DFFA8032E309F608C4
:10022900DFFA8078E309F208DFFA807088828C832C
:10023900E309F0A3DFFA806489828A83E0A3F608E0
:10024900DFFA805889828A83E0A3F208DFFA804CBA
:1002590080D280FA80C680D4806980F28033801091
:1002690080A680EA809A80A880DA80E280CA8033FA
:1002790089828A83ECFAE493A3C8C582C8CCC58372
:10028900CCF0A3C8C582C8CCC583CCDFE9DEE78042
:100299000D89828A83E493A3F608DFF9ECFAA9F0C1
:1002A900EDFB2289828A83ECFAE0A3C8C582C8CC17
:1002B900C583CCF0A3C8C582C8CCC583CCDFEADE30
:1002C900E880DB89828A83E493A3F208DFF980CC92
:1002D90088F0EF60010E4E60C388F0ED2402B4048B
:1002E9000050B9F582EB2402B4040050AF23234532
:0602F900822390025973FC
:1002FF00BB010689828A83E0225002E722BBFE02FD
:09030F00E32289828A83E493222F
:10031800BB010CE58229F582E5833AF583E022509A
:1003280006E92582F8E622BBFE06E92582F8E222E4
:0D033800E58229F582E5833AF583E49322FE
:10034500BB010689828A83F0225002F722BBFE0197
:02035500F32291
:10041A00020515E493A3F8E493A34003F68001F2DE
:10042A0008DFF48029E493A3F85407240CC8C333E3
:10043A00C4540F4420C8834004F456800146F6DFB2
:10044A00E4800B0102040810204080900681E47EBB
:10045A00019360BCA3FF543F30E509541FFEE493A7
:10046A00A360010ECF54C025E060A840B8E493A36E
:10047A00FAE493A3F8E493A3C8C582C8CAC583CA99
:10048A00F0A3C8C582C8CAC583CADFE9DEE780BE51
:010697000062
:00000001FF
