:1005FD002460603213160C185E081C5A42524A08C9
:10060D0005010002060703090405030706020001A0
:0C061D00000000000000000000000000D1
:100686000721303601200601140129C8042A00007A
:060696000000C100C101DB
:1006B000AD071FED600BE4FEEEC3940D50F20E800B
:0106C000F742
:0106C1002216
:03000B0002057774
:10057700C0E0C0D0C28CC28D0528E528D3941340B3
:100587001C7528000529E529D394EF400775290034
:10059700D2018009E529C394F05002D200E528B4BE
:1005A7000A04D2B38006E5287002C2B3758AB07513
:0905B7008C3CD28CD0D0D0E03293
:10051A00D280C2A2C2A0C297D297C2971206C27F45
:10052A00C112064DEF64AA60097B007A0079211294
:10053A0005C0758901D2A9758AB0758C3CD28CD256
:10054A00AF30000512035BC20030010812062912FF
:10055A00035BC201D2802080E8C2AF12049FE52C5F
:0D056A00B44606E4F52C12000ED2AF80D48A
:10000E0078087C007D007BFF7A06791D7E007F06D6
:10001E001202DD780E7C007D007BFF7A0679237E4E
:10002E00007F061202DDE4F514F516F517751800BB
:10003E00751908C2B3C297D297C297F515E4F59019
:10004E0075907EF5900515E515B408F12080031224
:10005E00049FE52C6409707BF52CE5166003020104
:10006E0005F515E515C394035031E51525E0240873
:10007E00F8E6C454F0FFE51525E02409F8E64FFF35
:10008E00E5159005FD93FEEFC39E400B75170075A9
:10009E00180075190880B5051580C812069D7D508B
:1000AE007F901206A1E50CC454F0450DFD7F801221
:1000BE0006A1E50AC454F0450BFD7F821206A1E5A8
:1000CE0008C454F04509FD7F841206A1AD147F8A41
:1000DE000206A1E52CB4150E0514E514D3940740C1
:1000EE00487514018043E52CB4070CE514B40103E4
:1000FE0075140815148032E4F515E515C3940A40FD
:10010E000302005AE51590060293B52C18AB17AAF8
:10011E0018A919E51512034974012519F519E435C5
:10012E0018F5188004051580D17B007A00790EE54C
:10013E001670047A007908C297D297C297E4F51523
:10014E0012030390060C93D395154006C291D291DB
:10015E00C291740129F9E43AFA12030390060C9342
:10016E00D395154006C292D292C292740129F9E437
:10017E003AFA12030390060C93D395154006C293D8
:10018E00D293C293740129F9E43AFA12030390064A
:10019E000C93D395154006C294D294C2947401293F
:1001AE00F9E43AFA12030390060C93D39515400620
:1001BE00C295D295C295740129F9E43AFA12030355
:1001CE0090060C93D395154006C296D296C296E52C
:1001DE001490061593D395154006C2B2D2B2C2B290
:1001EE007B007A00790EE51670047A007908051501
:0F01FE00E515640A600302014EE4F52C02005A75
:10049F00E4F51BF52C7F0F1206B020806D2080072E
:1004AF007F011206B080F6E4FCE4F51A3080077F76
:1004BF00011206B080F62080077F011206B080F689
:1004CF003080107F011206B0051BE51BC3941E4040
:1004DF00EF8034742A2CF8C000E6C313D000F6E581
:1004EF001BC394084008742A2CF8E64480F6E4F500
:1004FF001B051AE51AC3940840B20CEC640470A9EA
:0A050F00E52DF4652C6003E4F52CE3
:0105190022BF
:10062900C297D297C297E4FC7FFA1206B07FFA12FA
:1006390006B07FFA1206B0E4F59075907EF5900C3D
:03064900BC64E5A9
:01064C00228B
:10035B00E4F508E50825E02481FF12064D742125FC
:10036B0008F8A6070508E508C3940740E6C297D22C
:10037B0097C297E4F508E523C4540F90060C93D36A
:10038B0095084006C291D291C291E523540F900675
:10039B000C93D395084006C292D292C292E522C426
:1003AB00540F90060C93D395084006C293D293C278
:1003BB0093E522540F90060C93D395084006C294F4
:1003CB00D294C294E521C4540F90060C93D3950894
:1003DB004006C295D295C295E521540F90060C9319
:1003EB00D395084006C296D296C296E5269006157E
:1003FB0093D395084006C2B2D2B2C2B20508E50843
:07040B00640A600302038193
:0104120022C7
:0A06C20012069D7D507F900206A1F4
:0605C0008B088A09890A7C
:1005C60012069D7D507F901206A1E4F50BE50B25E2
:1005D600E02480FFAB08AA09A90A850B827583006F
:1005E60012031CFD1206A1050BE50BC3940840DDA2
:0705F6007DAA7FC00206A1EF
:04069D00E4FD7F8E6B
:0F06A1008D1AD2A212066DAF1A12066DC2A222D6
:10066D00E4FEC2A1EF30E002D2A1D2A000C2A000F0
:08067D00EFC313FF0EBE08EAF3
:010685002252
:10064D00D2A212066DE4FFEDC313FD30A1034305E5
:0F065D0080D2A000C2A0000FBF08ECC2A2AF0560
:01066C00226B
:03000000020413E4
:0C041300787FE4F6D8FD75812D02045AB4
:10020D00E709F608DFFA8046E709F208DFFA803ED3
:10021D0088828C83E709F0A3DFFA8032E309F608C0
:10022D00DFFA8078E309F208DFFA807088828C8328
:10023D00E309F0A3DFFA806489828A83E0A3F608DC
:10024D00DFFA805889828A83E0A3F208DFFA804CB6
:10025D0080D280FA80C680D4806980F2803380108D
:10026D0080A680EA809A80A880DA80E280CA8033F6
:10027D0089828A83ECFAE493A3C8C582C8CCC5836E
:10028D00CCF0A3C8C582C8CCC583CCDFE9DEE7803E
:10029D000D89828A83E493A3F608DFF9ECFAA9F0BD
:1002AD00EDFB2289828A83ECFAE0A3C8C582C8CC13
:1002BD00C583CCF0A3C8C582C8CCC583CCDFEADE2C
:1002CD00E880DB89828A83E493A3F208DFF980CC8E
:1002DD0088F0EF60010E4E60C388F0ED2402B40487
:1002ED000050B9F582EB2402B4040050AF2323452E
:0602FD00822390025D73F4
:10030300BB010689828A83E0225002E722BBFE02F8
:09031300E32289828A83E493222B
:10031C00BB010CE58229F582E5833AF583E0225096
:10032C0006E92582F8E622BBFE06E92582F8E222E0
:0D033C00E58229F582E5833AF583E49322FA
:10034900BB010689828A83F0225002F722BBFE0193
:02035900F3228D
:10041F0002051AE493A3F8E493A34003F68001F2D4
:10042F0008DFF48029E493A3F85407240CC8C333DE
:10043F00C4540F4420C8834004F456800146F6DFAD
:10044F00E4800B0102040810204080900686E47EB1
:10045F00019360BCA3FF543F30E509541FFEE493A2
:10046F00A360010ECF54C025E060A840B8E493A369
:10047F00FAE493A3F8E493A3C8C582C8CAC583CA94
:10048F00F0A3C8C582C8CAC583CADFE9DEE780BE4C
:01069C00005D
:00000001FF
